{
  "contractName": "BasicDogOrganisation",
  "abi": [
    {
      "inputs": [
        {
          "internalType": "address",
          "name": "_bondingMath",
          "type": "address"
        },
        {
          "internalType": "uint256",
          "name": "_buySlope",
          "type": "uint256"
        },
        {
          "internalType": "address",
          "name": "_dogUSD",
          "type": "address"
        },
        {
          "internalType": "address",
          "name": "_dogBank",
          "type": "address"
        },
        {
          "internalType": "string",
          "name": "_name",
          "type": "string"
        },
        {
          "internalType": "string",
          "name": "_symbol",
          "type": "string"
        },
        {
          "internalType": "uint8",
          "name": "_decimals",
          "type": "uint8"
        }
      ],
      "payable": false,
      "stateMutability": "nonpayable",
      "type": "constructor"
    },
    {
      "anonymous": false,
      "inputs": [
        {
          "indexed": false,
          "internalType": "uint256",
          "name": "taxPenalty",
          "type": "uint256"
        }
      ],
      "name": "CloseOrganisation",
      "type": "event"
    },
    {
      "anonymous": false,
      "inputs": [
        {
          "indexed": false,
          "internalType": "address",
          "name": "payer",
          "type": "address"
        },
        {
          "indexed": false,
          "internalType": "uint256",
          "name": "amount",
          "type": "uint256"
        }
      ],
      "name": "DividendPayed",
      "type": "event"
    },
    {
      "anonymous": false,
      "inputs": [
        {
          "indexed": false,
          "internalType": "address",
          "name": "investor",
          "type": "address"
        },
        {
          "indexed": false,
          "internalType": "uint256",
          "name": "amount",
          "type": "uint256"
        }
      ],
      "name": "Invest",
      "type": "event"
    },
    {
      "anonymous": false,
      "inputs": [
        {
          "indexed": true,
          "internalType": "address",
          "name": "previousOwner",
          "type": "address"
        },
        {
          "indexed": true,
          "internalType": "address",
          "name": "newOwner",
          "type": "address"
        }
      ],
      "name": "OwnershipTransferred",
      "type": "event"
    },
    {
      "anonymous": false,
      "inputs": [
        {
          "indexed": false,
          "internalType": "address",
          "name": "unlocker",
          "type": "address"
        },
        {
          "indexed": false,
          "internalType": "uint256",
          "name": "initialAmount",
          "type": "uint256"
        },
        {
          "indexed": false,
          "internalType": "uint256",
          "name": "initialDogSupply",
          "type": "uint256"
        }
      ],
      "name": "UnlockOrganisation",
      "type": "event"
    },
    {
      "anonymous": false,
      "inputs": [
        {
          "indexed": false,
          "internalType": "address",
          "name": "investor",
          "type": "address"
        },
        {
          "indexed": false,
          "internalType": "uint256",
          "name": "amount",
          "type": "uint256"
        }
      ],
      "name": "Withdraw",
      "type": "event"
    },
    {
      "constant": true,
      "inputs": [],
      "name": "USD_RESERVE_REMAINDER",
      "outputs": [
        {
          "internalType": "uint256",
          "name": "",
          "type": "uint256"
        }
      ],
      "payable": false,
      "stateMutability": "view",
      "type": "function"
    },
    {
      "constant": true,
      "inputs": [],
      "name": "bondingMath",
      "outputs": [
        {
          "internalType": "contract BondingMathematics",
          "name": "",
          "type": "address"
        }
      ],
      "payable": false,
      "stateMutability": "view",
      "type": "function"
    },
    {
      "constant": true,
      "inputs": [],
      "name": "buySlope",
      "outputs": [
        {
          "internalType": "uint256",
          "name": "",
          "type": "uint256"
        }
      ],
      "payable": false,
      "stateMutability": "view",
      "type": "function"
    },
    {
      "constant": true,
      "inputs": [],
      "name": "dogBank",
      "outputs": [
        {
          "internalType": "address",
          "name": "",
          "type": "address"
        }
      ],
      "payable": false,
      "stateMutability": "view",
      "type": "function"
    },
    {
      "constant": true,
      "inputs": [],
      "name": "dogOrgAdmin",
      "outputs": [
        {
          "internalType": "address",
          "name": "",
          "type": "address"
        }
      ],
      "payable": false,
      "stateMutability": "view",
      "type": "function"
    },
    {
      "constant": true,
      "inputs": [],
      "name": "dogOrgState",
      "outputs": [
        {
          "internalType": "enum BasicDogOrganisation.State",
          "name": "",
          "type": "uint8"
        }
      ],
      "payable": false,
      "stateMutability": "view",
      "type": "function"
    },
    {
      "constant": true,
      "inputs": [],
      "name": "dogToken",
      "outputs": [
        {
          "internalType": "contract DogToken",
          "name": "",
          "type": "address"
        }
      ],
      "payable": false,
      "stateMutability": "view",
      "type": "function"
    },
    {
      "constant": true,
      "inputs": [],
      "name": "dogUSD",
      "outputs": [
        {
          "internalType": "contract IERC20",
          "name": "",
          "type": "address"
        }
      ],
      "payable": false,
      "stateMutability": "view",
      "type": "function"
    },
    {
      "constant": true,
      "inputs": [],
      "name": "isOwner",
      "outputs": [
        {
          "internalType": "bool",
          "name": "",
          "type": "bool"
        }
      ],
      "payable": false,
      "stateMutability": "view",
      "type": "function"
    },
    {
      "constant": true,
      "inputs": [],
      "name": "owner",
      "outputs": [
        {
          "internalType": "address",
          "name": "",
          "type": "address"
        }
      ],
      "payable": false,
      "stateMutability": "view",
      "type": "function"
    },
    {
      "constant": true,
      "inputs": [],
      "name": "premintedDOG",
      "outputs": [
        {
          "internalType": "uint256",
          "name": "",
          "type": "uint256"
        }
      ],
      "payable": false,
      "stateMutability": "view",
      "type": "function"
    },
    {
      "constant": false,
      "inputs": [],
      "name": "renounceOwnership",
      "outputs": [],
      "payable": false,
      "stateMutability": "nonpayable",
      "type": "function"
    },
    {
      "constant": false,
      "inputs": [
        {
          "internalType": "address",
          "name": "newOwner",
          "type": "address"
        }
      ],
      "name": "transferOwnership",
      "outputs": [],
      "payable": false,
      "stateMutability": "nonpayable",
      "type": "function"
    },
    {
      "constant": true,
      "inputs": [],
      "name": "version",
      "outputs": [
        {
          "internalType": "uint16",
          "name": "",
          "type": "uint16"
        }
      ],
      "payable": false,
      "stateMutability": "view",
      "type": "function"
    },
    {
      "constant": false,
      "inputs": [
        {
          "internalType": "address",
          "name": "_newdogOrgAdmin",
          "type": "address"
        }
      ],
      "name": "setDogOrgAdminAddress",
      "outputs": [],
      "payable": false,
      "stateMutability": "nonpayable",
      "type": "function"
    },
    {
      "constant": false,
      "inputs": [
        {
          "internalType": "uint256",
          "name": "usdAmount",
          "type": "uint256"
        }
      ],
      "name": "invest",
      "outputs": [],
      "payable": false,
      "stateMutability": "nonpayable",
      "type": "function"
    },
    {
      "constant": false,
      "inputs": [
        {
          "internalType": "uint256",
          "name": "_amountDOG",
          "type": "uint256"
        }
      ],
      "name": "sell",
      "outputs": [],
      "payable": false,
      "stateMutability": "nonpayable",
      "type": "function"
    },
    {
      "constant": true,
      "inputs": [
        {
          "internalType": "uint256",
          "name": "_amountDOG",
          "type": "uint256"
        }
      ],
      "name": "calcUSDForDog",
      "outputs": [
        {
          "internalType": "uint256",
          "name": "",
          "type": "uint256"
        }
      ],
      "payable": false,
      "stateMutability": "view",
      "type": "function"
    },
    {
      "constant": true,
      "inputs": [
        {
          "internalType": "uint256",
          "name": "usdAmount",
          "type": "uint256"
        }
      ],
      "name": "calcDogForUSD",
      "outputs": [
        {
          "internalType": "uint256",
          "name": "",
          "type": "uint256"
        }
      ],
      "payable": false,
      "stateMutability": "view",
      "type": "function"
    },
    {
      "constant": true,
      "inputs": [
        {
          "internalType": "uint256",
          "name": "dogTokenAmount",
          "type": "uint256"
        }
      ],
      "name": "calcUSDToReturn",
      "outputs": [
        {
          "internalType": "uint256",
          "name": "",
          "type": "uint256"
        }
      ],
      "payable": false,
      "stateMutability": "view",
      "type": "function"
    },
    {
      "constant": false,
      "inputs": [
        {
          "internalType": "uint256",
          "name": "dividendAmount",
          "type": "uint256"
        },
        {
          "internalType": "uint8",
          "name": "dividendRatio",
          "type": "uint8"
        }
      ],
      "name": "payDividends",
      "outputs": [],
      "payable": false,
      "stateMutability": "nonpayable",
      "type": "function"
    },
    {
      "constant": false,
      "inputs": [
        {
          "internalType": "uint256",
          "name": "organiserUSDContribution",
          "type": "uint256"
        },
        {
          "internalType": "uint256",
          "name": "organiserDOGReward",
          "type": "uint256"
        }
      ],
      "name": "unlockOrganisation",
      "outputs": [],
      "payable": false,
      "stateMutability": "nonpayable",
      "type": "function"
    },
    {
      "constant": false,
      "inputs": [],
      "name": "closeOrganisation",
      "outputs": [],
      "payable": false,
      "stateMutability": "nonpayable",
      "type": "function"
    },
    {
      "constant": true,
      "inputs": [],
      "name": "calcCloseTaxPenalty",
      "outputs": [
        {
          "internalType": "uint256",
          "name": "",
          "type": "uint256"
        }
      ],
      "payable": false,
      "stateMutability": "view",
      "type": "function"
    }
  ],
  "bytecode": "0x608060405260006006553480156200001657600080fd5b5060405162003b4038038062003b40833981810160405260e08110156200003c57600080fd5b81516020830151604080850151606086015160808701805193519597949692959194919392820192846401000000008211156200007857600080fd5b9083019060208201858111156200008e57600080fd5b8251640100000000811182820188101715620000a957600080fd5b82525081516020918201929091019080838360005b83811015620000d8578181015183820152602001620000be565b50505050905090810190601f168015620001065780820380516001836020036101000a031916815260200191505b50604052602001805160405193929190846401000000008211156200012a57600080fd5b9083019060208201858111156200014057600080fd5b82516401000000008111828201881017156200015b57600080fd5b82525081516020918201929091019080838360005b838110156200018a57818101518382015260200162000170565b50505050905090810190601f168015620001b85780820380516001836020036101000a031916815260200191505b50604081905260209190910151600080546001600160a01b03191633178082559194506001600160a01b03919091169250907f8be0079c531659141344cd1fd0a4f28419497f9722a3daafe3b4186f6b6457e0908290a36001600160a01b03851662000270576040517f08c379a000000000000000000000000000000000000000000000000000000000815260040180806020018281038252602981526020018062003a986029913960400191505060405180910390fd5b6001600160a01b038416620002d1576040517f08c379a000000000000000000000000000000000000000000000000000000000815260040180806020018281038252602a81526020018062003b16602a913960400191505060405180910390fd5b6001600160a01b03871662000332576040517f08c379a000000000000000000000000000000000000000000000000000000000815260040180806020018281038252602e81526020018062003ac1602e913960400191505060405180910390fd5b600086116200038d576040517f08c379a000000000000000000000000000000000000000000000000000000000815260040180806020018281038252602781526020018062003aef6027913960400191505060405180910390fd5b85600781905550828282604051620003a59062000506565b60ff82166040820152606080825284519082015283518190602080830191608084019188019080838360005b83811015620003eb578181015183820152602001620003d1565b50505050905090810190601f168015620004195780820380516001836020036101000a031916815260200191505b50838103825285518152855160209182019187019080838360005b838110156200044e57818101518382015260200162000434565b50505050905090810190601f1680156200047c5780820380516001836020036101000a031916815260200191505b5095505050505050604051809103906000f080158015620004a1573d6000803e3d6000fd5b50600380546001600160a01b03199081166001600160a01b039384161790915560028054821697831697909717909655600480548716958216959095179094555050600580543390851617905550600180549092169316929092179091555062000514565b61139a80620026fe83390190565b6121da80620005246000396000f3fe608060405234801561001057600080fd5b50600436106101985760003560e01c8063783c0bb2116100e3578063c50215011161008c578063f2fde38b11610066578063f2fde38b14610384578063f9c6c754146103aa578063ff646493146103b257610198565b8063c502150114610357578063e4849b321461035f578063e5b4eed91461037c57610198565b806396043284116100bd57806396043284146102e8578063a80d8f4e14610314578063a952c4d91461033a57610198565b8063783c0bb2146102bc5780638da5cb5b146102c45780638f32d59b146102cc57610198565b806357d6db00116101455780636e1779e01161011f5780636e1779e01461028f578063715018a61461029757806377e0205c1461029f57610198565b806357d6db00146102595780635901da5a1461026157806369fc416c1461026957610198565b80632f1d0a75116101765780632f1d0a751461020e57806343b502c81461023257806354fd4d501461023a57610198565b806306ba8d3b1461019d578063116b7a94146101cc5780632afcf480146101f1575b600080fd5b6101ba600480360360208110156101b357600080fd5b50356103ba565b60408051918252519081900360200190f35b6101ef600480360360408110156101e257600080fd5b5080359060200135610531565b005b6101ef6004803603602081101561020757600080fd5b5035610972565b610216610d55565b604080516001600160a01b039092168252519081900360200190f35b610216610d64565b610242610d73565b6040805161ffff9092168252519081900360200190f35b6101ba610d78565b610216610d7e565b6101ef6004803603604081101561027f57600080fd5b508035906020013560ff16610d8d565b610216611139565b6101ef611148565b6101ba600480360360208110156102b557600080fd5b50356111f8565b6101ba61149f565b6102166114a5565b6102d46114b4565b604080519115158252519081900360200190f35b6102f06114c5565b6040518082600281111561030057fe5b60ff16815260200191505060405180910390f35b6101ef6004803603602081101561032a57600080fd5b50356001600160a01b03166114ce565b6101ba6004803603602081101561035057600080fd5b503561158b565b6101ef611698565b6101ef6004803603602081101561037557600080fd5b50356118d3565b6101ba611af6565b6101ef6004803603602081101561039a57600080fd5b50356001600160a01b0316611afb565b610216611b60565b6101ba611b6f565b600154600354604080516318160ddd60e01b815290516000936001600160a01b039081169363122e25f4939116916318160ddd91600480820192602092909190829003018186803b15801561040e57600080fd5b505afa158015610422573d6000803e3d6000fd5b505050506040513d602081101561043857600080fd5b5051600254604080516370a0823160e01b815230600482015290516001600160a01b03909216916370a0823191602480820192602092909190829003018186803b15801561048557600080fd5b505afa158015610499573d6000803e3d6000fd5b505050506040513d60208110156104af57600080fd5b5051604080516001600160e01b031960e086901b1681526004810193909352602483019190915260448201869052516064808301926020929190829003018186803b1580156104fd57600080fd5b505afa158015610511573d6000803e3d6000fd5b505050506040513d602081101561052757600080fd5b505190505b919050565b6105396114b4565b61058a576040805162461bcd60e51b815260206004820181905260248201527f4f776e61626c653a2063616c6c6572206973206e6f7420746865206f776e6572604482015290519081900360640190fd5b600060085460ff16600281111561059d57fe5b146105a757600080fd5b600254604080516370a0823160e01b815230600482015290516001600160a01b03909216916370a0823191602480820192602092909190829003018186803b1580156105f257600080fd5b505afa158015610606573d6000803e3d6000fd5b505050506040513d602081101561061c57600080fd5b50511561065a5760405162461bcd60e51b815260040180806020018281038252603581526020018061212c6035913960400191505060405180910390fd5b60025460408051636eb1769f60e11b8152336004820152306024820152905184926001600160a01b03169163dd62ed3e916044808301926020929190829003018186803b1580156106aa57600080fd5b505afa1580156106be573d6000803e3d6000fd5b505050506040513d60208110156106d457600080fd5b505110156107135760405162461bcd60e51b81526004018080602001828103825260448152602001806120696044913960600191505060405180910390fd5b6002546001600160a01b03166323b872dd333061073786600563ffffffff611ce416565b6040518463ffffffff1660e01b815260040180846001600160a01b03166001600160a01b03168152602001836001600160a01b03166001600160a01b031681526020018281526020019350505050602060405180830381600087803b15801561079f57600080fd5b505af11580156107b3573d6000803e3d6000fd5b505050506040513d60208110156107c957600080fd5b50506002546004546001600160a01b03918216916323b872dd913391166108076107fa87600563ffffffff611ce416565b879063ffffffff611d5016565b6040518463ffffffff1660e01b815260040180846001600160a01b03166001600160a01b03168152602001836001600160a01b03166001600160a01b031681526020018281526020019350505050602060405180830381600087803b15801561086f57600080fd5b505af1158015610883573d6000803e3d6000fd5b505050506040513d602081101561089957600080fd5b50506006819055600354604080516340c10f1960e01b81523360048201526024810184905290516001600160a01b03909216916340c10f19916044808201926020929091908290030181600087803b1580156108f457600080fd5b505af1158015610908573d6000803e3d6000fd5b505050506040513d602081101561091e57600080fd5b50506008805460ff19166001179055604080513381526020810184905280820183905290517fedec445470654117e459a8de953d77c06838fda4e9a661275ad4d4cee6dc4684916060908290030190a15050565b600160085460ff16600281111561098557fe5b146109c15760405162461bcd60e51b815260040180806020018281038252602c815260200180611ebb602c913960400191505060405180910390fd5b600254604080516370a0823160e01b815230600482015290516000926001600160a01b0316916370a08231916024808301926020929190829003018186803b158015610a0c57600080fd5b505afa158015610a20573d6000803e3d6000fd5b505050506040513d6020811015610a3657600080fd5b505111610a745760405162461bcd60e51b8152600401808060200182810382526039815260200180611f326039913960400191505060405180910390fd5b60025460408051636eb1769f60e11b8152336004820152306024820152905183926001600160a01b03169163dd62ed3e916044808301926020929190829003018186803b158015610ac457600080fd5b505afa158015610ad8573d6000803e3d6000fd5b505050506040513d6020811015610aee57600080fd5b50511015610b2d5760405162461bcd60e51b815260040180806020018281038252603c8152602001806120f0603c913960400191505060405180910390fd5b6000610b388261158b565b90506000610b4d83600563ffffffff611ce416565b600254604080516323b872dd60e01b81523360048201523060248201526044810184905290519293506001600160a01b03909116916323b872dd916064808201926020929091908290030181600087803b158015610baa57600080fd5b505af1158015610bbe573d6000803e3d6000fd5b505050506040513d6020811015610bd457600080fd5b50506002546004546001600160a01b03918216916323b872dd91339116610c01878663ffffffff611d5016565b6040518463ffffffff1660e01b815260040180846001600160a01b03166001600160a01b03168152602001836001600160a01b03166001600160a01b031681526020018281526020019350505050602060405180830381600087803b158015610c6957600080fd5b505af1158015610c7d573d6000803e3d6000fd5b505050506040513d6020811015610c9357600080fd5b5050600354604080516340c10f1960e01b81523360048201526024810185905290516001600160a01b03909216916340c10f19916044808201926020929091908290030181600087803b158015610ce957600080fd5b505af1158015610cfd573d6000803e3d6000fd5b505050506040513d6020811015610d1357600080fd5b5050604080513381526020810185905281517fd90d253a9de34d2fdd5a75ae49ea17fcb43af32fc8ea08cc6d2341991dd3872e929181900390910190a1505050565b6005546001600160a01b031681565b6003546001600160a01b031681565b600181565b60065481565b6002546001600160a01b031681565b600160085460ff166002811115610da057fe5b14610ddc5760405162461bcd60e51b815260040180806020018281038252602c815260200180611ebb602c913960400191505060405180910390fd5b60648160ff161115610e1f5760405162461bcd60e51b815260040180806020018281038252602c815260200180611ff4602c913960400191505060405180910390fd5b600254604080516370a0823160e01b815230600482015290516000926001600160a01b0316916370a08231916024808301926020929190829003018186803b158015610e6a57600080fd5b505afa158015610e7e573d6000803e3d6000fd5b505050506040513d6020811015610e9457600080fd5b505111610ed25760405162461bcd60e51b81526004018080602001828103825260458152602001806121616045913960600191505060405180910390fd5b60025460408051636eb1769f60e11b8152336004820152306024820152905184926001600160a01b03169163dd62ed3e916044808301926020929190829003018186803b158015610f2257600080fd5b505afa158015610f36573d6000803e3d6000fd5b505050506040513d6020811015610f4c57600080fd5b50511015610f8b5760405162461bcd60e51b8152600401808060200182810382526038815260200180611fbc6038913960400191505060405180910390fd5b6000610fb16064610fa58560ff861663ffffffff611dad16565b9063ffffffff611ce416565b600254604080516323b872dd60e01b81523360048201523060248201526044810184905290519293506001600160a01b03909116916323b872dd916064808201926020929091908290030181600087803b15801561100e57600080fd5b505af1158015611022573d6000803e3d6000fd5b505050506040513d602081101561103857600080fd5b50506002546004546001600160a01b03918216916323b872dd91339116611065878663ffffffff611d5016565b6040518463ffffffff1660e01b815260040180846001600160a01b03166001600160a01b03168152602001836001600160a01b03166001600160a01b031681526020018281526020019350505050602060405180830381600087803b1580156110cd57600080fd5b505af11580156110e1573d6000803e3d6000fd5b505050506040513d60208110156110f757600080fd5b5050604080513381526020810185905281517f2a90f808c9dd57afe043de25b0834f61e5484e5fbc5a3cf6b454bf09e70ca9bb929181900390910190a1505050565b6004546001600160a01b031681565b6111506114b4565b6111a1576040805162461bcd60e51b815260206004820181905260248201527f4f776e61626c653a2063616c6c6572206973206e6f7420746865206f776e6572604482015290519081900360640190fd5b600080546040516001600160a01b03909116907f8be0079c531659141344cd1fd0a4f28419497f9722a3daafe3b4186f6b6457e0908390a36000805473ffffffffffffffffffffffffffffffffffffffff19169055565b6000600160085460ff16600281111561120d57fe5b141561138457600154600354604080516318160ddd60e01b815290516001600160a01b039384169363122e25f49316916318160ddd916004808301926020929190829003018186803b15801561126257600080fd5b505afa158015611276573d6000803e3d6000fd5b505050506040513d602081101561128c57600080fd5b5051600254604080516370a0823160e01b815230600482015290516001600160a01b03909216916370a0823191602480820192602092909190829003018186803b1580156112d957600080fd5b505afa1580156112ed573d6000803e3d6000fd5b505050506040513d602081101561130357600080fd5b5051604080516001600160e01b031960e086901b1681526004810193909352602483019190915260448201869052516064808301926020929190829003018186803b15801561135157600080fd5b505afa158015611365573d6000803e3d6000fd5b505050506040513d602081101561137b57600080fd5b5051905061052c565b600260085460ff16600281111561139757fe5b141561052c57600354604080516318160ddd60e01b81529051611498926001600160a01b0316916318160ddd916004808301926020929190829003018186803b1580156113e357600080fd5b505afa1580156113f7573d6000803e3d6000fd5b505050506040513d602081101561140d57600080fd5b5051600254604080516370a0823160e01b81523060048201529051610fa59287926001600160a01b03909116916370a0823191602480820192602092909190829003018186803b15801561146057600080fd5b505afa158015611474573d6000803e3d6000fd5b505050506040513d602081101561148a57600080fd5b50519063ffffffff611dad16565b905061052c565b60075481565b6000546001600160a01b031690565b6000546001600160a01b0316331490565b60085460ff1681565b6005546001600160a01b031633146115175760405162461bcd60e51b81526004018080602001828103825260288152602001806120206028913960400191505060405180910390fd5b6001600160a01b03811661155c5760405162461bcd60e51b8152600401808060200182810382526025815260200180611ee76025913960400191505060405180910390fd5b6005805473ffffffffffffffffffffffffffffffffffffffff19166001600160a01b0392909216919091179055565b600154600354604080516318160ddd60e01b8152905160009384936001600160a01b0391821693635cd6bd699391909216916318160ddd916004808301926020929190829003018186803b1580156115e257600080fd5b505afa1580156115f6573d6000803e3d6000fd5b505050506040513d602081101561160c57600080fd5b5051600654600754604080516001600160e01b031960e087901b16815260048101949094526024840192909252604483018890526064830152516084808301926020929190829003018186803b15801561166557600080fd5b505afa158015611679573d6000803e3d6000fd5b505050506040513d602081101561168f57600080fd5b50519392505050565b6116a06114b4565b6116f1576040805162461bcd60e51b815260206004820181905260248201527f4f776e61626c653a2063616c6c6572206973206e6f7420746865206f776e6572604482015290519081900360640190fd5b600160085460ff16600281111561170457fe5b146117405760405162461bcd60e51b815260040180806020018281038252602c815260200180611ebb602c913960400191505060405180910390fd5b600061174a611b6f565b60025460408051636eb1769f60e11b8152336004820152306024820152905192935083926001600160a01b039092169163dd62ed3e91604480820192602092909190829003018186803b1580156117a057600080fd5b505afa1580156117b4573d6000803e3d6000fd5b505050506040513d60208110156117ca57600080fd5b505110156118095760405162461bcd60e51b8152600401808060200182810382526051815260200180611f6b6051913960600191505060405180910390fd5b600254604080516323b872dd60e01b81523360048201523060248201526044810184905290516001600160a01b03909216916323b872dd916064808201926020929091908290030181600087803b15801561186357600080fd5b505af1158015611877573d6000803e3d6000fd5b505050506040513d602081101561188d57600080fd5b50506008805460ff191660021790556040805182815290517f43653e2d390c42290de0bdbe9dc5b568299e1bbf9cf406efbc9e3647f37d7e12916020908290030190a150565b60035460408051636eb1769f60e11b8152336004820152306024820152905183926001600160a01b03169163dd62ed3e916044808301926020929190829003018186803b15801561192357600080fd5b505afa158015611937573d6000803e3d6000fd5b505050506040513d602081101561194d57600080fd5b5051101561198c5760405162461bcd60e51b81526004018080602001828103825260438152602001806120ad6043913960600191505060405180910390fd5b6000611997826103ba565b600254604080517fa9059cbb0000000000000000000000000000000000000000000000000000000081523360048201526024810184905290519293506001600160a01b039091169163a9059cbb916044808201926020929091908290030181600087803b158015611a0757600080fd5b505af1158015611a1b573d6000803e3d6000fd5b505050506040513d6020811015611a3157600080fd5b5050600354604080517f79cc67900000000000000000000000000000000000000000000000000000000081523360048201526024810185905290516001600160a01b03909216916379cc67909160448082019260009290919082900301818387803b158015611a9f57600080fd5b505af1158015611ab3573d6000803e3d6000fd5b5050604080513381526020810185905281517f884edad9ce6fa2440d8a54cc123490eb96d2768479d49ff9c7366125a94243649450908190039091019150a15050565b600581565b611b036114b4565b611b54576040805162461bcd60e51b815260206004820181905260248201527f4f776e61626c653a2063616c6c6572206973206e6f7420746865206f776e6572604482015290519081900360640190fd5b611b5d81611e0d565b50565b6001546001600160a01b031681565b600154600354604080516318160ddd60e01b815290516000936001600160a01b039081169363841091a2939116916318160ddd91600480820192602092909190829003018186803b158015611bc357600080fd5b505afa158015611bd7573d6000803e3d6000fd5b505050506040513d6020811015611bed57600080fd5b5051600654600254604080516370a0823160e01b815230600482015290516001600160a01b03909216916370a0823191602480820192602092909190829003018186803b158015611c3d57600080fd5b505afa158015611c51573d6000803e3d6000fd5b505050506040513d6020811015611c6757600080fd5b5051604080516001600160e01b031960e087901b168152600481019490945260248401929092526044830152516064808301926020929190829003018186803b158015611cb357600080fd5b505afa158015611cc7573d6000803e3d6000fd5b505050506040513d6020811015611cdd57600080fd5b5051905090565b6000808211611d3a576040805162461bcd60e51b815260206004820152601a60248201527f536166654d6174683a206469766973696f6e206279207a65726f000000000000604482015290519081900360640190fd5b6000828481611d4557fe5b049150505b92915050565b600082821115611da7576040805162461bcd60e51b815260206004820152601e60248201527f536166654d6174683a207375627472616374696f6e206f766572666c6f770000604482015290519081900360640190fd5b50900390565b600082611dbc57506000611d4a565b82820282848281611dc957fe5b0414611e065760405162461bcd60e51b81526004018080602001828103825260218152602001806120486021913960400191505060405180910390fd5b9392505050565b6001600160a01b038116611e525760405162461bcd60e51b8152600401808060200182810382526026815260200180611f0c6026913960400191505060405180910390fd5b600080546040516001600160a01b03808516939216917f8be0079c531659141344cd1fd0a4f28419497f9722a3daafe3b4186f6b6457e091a36000805473ffffffffffffffffffffffffffffffffffffffff19166001600160a01b039290921691909117905556fe6f6e6c795768656e4c697665203a3a20546865204f7267616e69736174696f6e206973206e6f74206c697665646f674f726741646d696e41646472657373203a3a20696e76616c696420616464726573734f776e61626c653a206e6577206f776e657220697320746865207a65726f2061646472657373696e766573743a3a204f7267616e69736174696f6e206973206e6f7420756e6c6f636b656420666f7220696e766573746d656e747320796574636c6f73654f7267616e69736174696f6e203a3a204f776e657220747269657320746f20636c6f7365206f7267616e69736174696f6e207769746820756e617070726f7665642055534420616d6f756e747061794469766964656e64733a3a20706179657220747269657320746f20706179207769746820756e617070726f76656420616d6f756e746469766964656e64526174696f20697320686967686572207468616e206d6178696d756d20616c6c6f7765646f6e6c7941646d696e203a3a206d73672073656e646572206973206e6f74207468652061646d696e536166654d6174683a206d756c7469706c69636174696f6e206f766572666c6f77756e6c6f636b4f7267616e69736174696f6e3a3a20556e6c6f636b657220747269657320746f20756e6c6f636b207769746820756e617070726f76656420616d6f756e747265766f6b65496e766573746d656e743a3a20496e766573746f722077616e747320746f20776974686472617720446f6720776974686f757420616c6c6f77616e6365696e766573743a3a20496e766573746f7220747269657320746f20696e76657374207769746820756e617070726f7665642055534420616d6f756e74756e6c6f636b4f7267616e69736174696f6e3a3a204f7267616e697a6174696f6e20697320616c726561647920756e6c6f636b65647061794469766964656e64733a3a204f7267616e69736174696f6e206973206e6f7420756e6c6f636b656420666f72206469766964656e6473207061796d656e7420796574a265627a7a72315820171d1c9fffec1da8156bb6c9aaec0f1844038c79101a956d3c4c8158edeec2b364736f6c634300050c003260806040523480156200001157600080fd5b506040516200139a3803806200139a833981810160405260608110156200003757600080fd5b81019080805160405193929190846401000000008211156200005857600080fd5b9083019060208201858111156200006e57600080fd5b82516401000000008111828201881017156200008957600080fd5b82525081516020918201929091019080838360005b83811015620000b85781810151838201526020016200009e565b50505050905090810190601f168015620000e65780820380516001836020036101000a031916815260200191505b50604052602001805160405193929190846401000000008211156200010a57600080fd5b9083019060208201858111156200012057600080fd5b82516401000000008111828201881017156200013b57600080fd5b82525081516020918201929091019080838360005b838110156200016a57818101518382015260200162000150565b50505050905090810190601f168015620001985780820380516001836020036101000a031916815260200191505b50604052602090810151855190935085925084918491620001c091600091908601906200037e565b508151620001d69060019060208501906200037e565b506002805460ff191660ff9290921691909117905550620001f990503362000202565b50505062000423565b6200021d8160066200025460201b62000d061790919060201c565b6040516001600160a01b038216907f6ae172837ea30b801fbfcdd4108aa1d5bf8ff775444fd70256b44e6bf3dfc3f690600090a250565b6200026982826001600160e01b03620002fb16565b15620002d657604080517f08c379a000000000000000000000000000000000000000000000000000000000815260206004820152601f60248201527f526f6c65733a206163636f756e7420616c72656164792068617320726f6c6500604482015290519081900360640190fd5b6001600160a01b0316600090815260209190915260409020805460ff19166001179055565b60006001600160a01b0382166200035e576040517f08c379a0000000000000000000000000000000000000000000000000000000008152600401808060200182810382526022815260200180620013786022913960400191505060405180910390fd5b506001600160a01b03166000908152602091909152604090205460ff1690565b828054600181600116156101000203166002900490600052602060002090601f016020900481019282601f10620003c157805160ff1916838001178555620003f1565b82800160010185558215620003f1579182015b82811115620003f1578251825591602001919060010190620003d4565b50620003ff92915062000403565b5090565b6200042091905b80821115620003ff57600081556001016200040a565b90565b610f4580620004336000396000f3fe608060405234801561001057600080fd5b506004361061011b5760003560e01c806370a08231116100b25780639865027511610081578063a9059cbb11610066578063a9059cbb14610376578063aa271e1a146103a2578063dd62ed3e146103c85761011b565b80639865027514610342578063a457c2d71461034a5761011b565b806370a08231146102c257806379cc6790146102e857806395d89b4114610314578063983b2d561461031c5761011b565b8063313ce567116100ee578063313ce5671461022d578063395093511461024b57806340c10f191461027757806342966c68146102a35761011b565b806306fdde0314610120578063095ea7b31461019d57806318160ddd146101dd57806323b872dd146101f7575b600080fd5b6101286103f6565b6040805160208082528351818301528351919283929083019185019080838360005b8381101561016257818101518382015260200161014a565b50505050905090810190601f16801561018f5780820380516001836020036101000a031916815260200191505b509250505060405180910390f35b6101c9600480360360408110156101b357600080fd5b506001600160a01b03813516906020013561048c565b604080519115158252519081900360200190f35b6101e56104a2565b60408051918252519081900360200190f35b6101c96004803603606081101561020d57600080fd5b506001600160a01b038135811691602081013590911690604001356104a8565b6102356104ff565b6040805160ff9092168252519081900360200190f35b6101c96004803603604081101561026157600080fd5b506001600160a01b038135169060200135610508565b6101c96004803603604081101561028d57600080fd5b506001600160a01b038135169060200135610544565b6102c0600480360360208110156102b957600080fd5b5035610594565b005b6101e5600480360360208110156102d857600080fd5b50356001600160a01b03166105a1565b6102c0600480360360408110156102fe57600080fd5b506001600160a01b0381351690602001356105bc565b6101286105ca565b6102c06004803603602081101561033257600080fd5b50356001600160a01b031661062a565b6102c0610677565b6101c96004803603604081101561036057600080fd5b506001600160a01b038135169060200135610682565b6101c96004803603604081101561038c57600080fd5b506001600160a01b0381351690602001356106be565b6101c9600480360360208110156103b857600080fd5b50356001600160a01b03166106cb565b6101e5600480360360408110156103de57600080fd5b506001600160a01b03813581169160200135166106e4565b60008054604080516020601f60026000196101006001881615020190951694909404938401819004810282018101909252828152606093909290918301828280156104825780601f1061045757610100808354040283529160200191610482565b820191906000526020600020905b81548152906001019060200180831161046557829003601f168201915b5050505050905090565b600061049933848461070f565b50600192915050565b60055490565b60006104b58484846107fb565b6001600160a01b0384166000908152600460209081526040808320338085529252909120546104f59186916104f0908663ffffffff61093f16565b61070f565b5060019392505050565b60025460ff1690565b3360008181526004602090815260408083206001600160a01b038716845290915281205490916104999185906104f0908663ffffffff61099c16565b600061054f336106cb565b61058a5760405162461bcd60e51b8152600401808060200182810382526030815260200180610e346030913960400191505060405180910390fd5b61049983836109fd565b61059e3382610aef565b50565b6001600160a01b031660009081526003602052604090205490565b6105c68282610bca565b5050565b60018054604080516020601f600260001961010087891615020190951694909404938401819004810282018101909252828152606093909290918301828280156104825780601f1061045757610100808354040283529160200191610482565b610633336106cb565b61066e5760405162461bcd60e51b8152600401808060200182810382526030815260200180610e346030913960400191505060405180910390fd5b61059e81610c0f565b61068033610c57565b565b3360008181526004602090815260408083206001600160a01b038716845290915281205490916104999185906104f0908663ffffffff61093f16565b60006104993384846107fb565b60006106de60068363ffffffff610c9f16565b92915050565b6001600160a01b03918216600090815260046020908152604080832093909416825291909152205490565b6001600160a01b0383166107545760405162461bcd60e51b8152600401808060200182810382526024815260200180610eed6024913960400191505060405180910390fd5b6001600160a01b0382166107995760405162461bcd60e51b8152600401808060200182810382526022815260200180610e126022913960400191505060405180910390fd5b6001600160a01b03808416600081815260046020908152604080832094871680845294825291829020859055815185815291517f8c5be1e5ebec7d5bd14f71427d1e84f3dd0314c0f7b2291e5b200ac8c7c3b9259281900390910190a3505050565b6001600160a01b0383166108405760405162461bcd60e51b8152600401808060200182810382526025815260200180610ec86025913960400191505060405180910390fd5b6001600160a01b0382166108855760405162461bcd60e51b8152600401808060200182810382526023815260200180610def6023913960400191505060405180910390fd5b6001600160a01b0383166000908152600360205260409020546108ae908263ffffffff61093f16565b6001600160a01b0380851660009081526003602052604080822093909355908416815220546108e3908263ffffffff61099c16565b6001600160a01b0380841660008181526003602090815260409182902094909455805185815290519193928716927fddf252ad1be2c89b69c2b068fc378daa952ba7f163c4a11628f55a4df523b3ef92918290030190a3505050565b600082821115610996576040805162461bcd60e51b815260206004820152601e60248201527f536166654d6174683a207375627472616374696f6e206f766572666c6f770000604482015290519081900360640190fd5b50900390565b6000828201838110156109f6576040805162461bcd60e51b815260206004820152601b60248201527f536166654d6174683a206164646974696f6e206f766572666c6f770000000000604482015290519081900360640190fd5b9392505050565b6001600160a01b038216610a58576040805162461bcd60e51b815260206004820152601f60248201527f45524332303a206d696e7420746f20746865207a65726f206164647265737300604482015290519081900360640190fd5b600554610a6b908263ffffffff61099c16565b6005556001600160a01b038216600090815260036020526040902054610a97908263ffffffff61099c16565b6001600160a01b03831660008181526003602090815260408083209490945583518581529351929391927fddf252ad1be2c89b69c2b068fc378daa952ba7f163c4a11628f55a4df523b3ef9281900390910190a35050565b6001600160a01b038216610b345760405162461bcd60e51b8152600401808060200182810382526021815260200180610ea76021913960400191505060405180910390fd5b600554610b47908263ffffffff61093f16565b6005556001600160a01b038216600090815260036020526040902054610b73908263ffffffff61093f16565b6001600160a01b0383166000818152600360209081526040808320949094558351858152935191937fddf252ad1be2c89b69c2b068fc378daa952ba7f163c4a11628f55a4df523b3ef929081900390910190a35050565b610bd48282610aef565b6001600160a01b0382166000908152600460209081526040808320338085529252909120546105c69184916104f0908563ffffffff61093f16565b610c2060068263ffffffff610d0616565b6040516001600160a01b038216907f6ae172837ea30b801fbfcdd4108aa1d5bf8ff775444fd70256b44e6bf3dfc3f690600090a250565b610c6860068263ffffffff610d8716565b6040516001600160a01b038216907fe94479a9f7e1952cc78f2d6baab678adc1b772d936c6583def489e524cb6669290600090a250565b60006001600160a01b038216610ce65760405162461bcd60e51b8152600401808060200182810382526022815260200180610e856022913960400191505060405180910390fd5b506001600160a01b03166000908152602091909152604090205460ff1690565b610d108282610c9f565b15610d62576040805162461bcd60e51b815260206004820152601f60248201527f526f6c65733a206163636f756e7420616c72656164792068617320726f6c6500604482015290519081900360640190fd5b6001600160a01b0316600090815260209190915260409020805460ff19166001179055565b610d918282610c9f565b610dcc5760405162461bcd60e51b8152600401808060200182810382526021815260200180610e646021913960400191505060405180910390fd5b6001600160a01b0316600090815260209190915260409020805460ff1916905556fe45524332303a207472616e7366657220746f20746865207a65726f206164647265737345524332303a20617070726f766520746f20746865207a65726f20616464726573734d696e746572526f6c653a2063616c6c657220646f6573206e6f74206861766520746865204d696e74657220726f6c65526f6c65733a206163636f756e7420646f6573206e6f74206861766520726f6c65526f6c65733a206163636f756e7420697320746865207a65726f206164647265737345524332303a206275726e2066726f6d20746865207a65726f206164647265737345524332303a207472616e736665722066726f6d20746865207a65726f206164647265737345524332303a20617070726f76652066726f6d20746865207a65726f2061646472657373a265627a7a7231582063dbcab6c4c3b4ec63e53440eeb75af4bad4f856ba18e160d447a96a7a460e3b64736f6c634300050c0032526f6c65733a206163636f756e7420697320746865207a65726f2061646472657373636f6e7374727563746f723a3a20646f67205553442061646472657373206973207265717569726564636f6e7374727563746f723a3a20426f6e64696e67204d61746820616464726573732069732072657175697265645468652062757920736c6f7065206d7573742062652067726561746572207468616e207a65726f636f6e7374727563746f723a3a20646f672042616e6b2061646472657373206973207265717569726564",
  "source": "pragma solidity ^0.5.4;\n\nimport \"@openzeppelin/contracts/math/SafeMath.sol\";\nimport \"@openzeppelin/contracts/token/ERC20/IERC20.sol\";\nimport \"@openzeppelin/contracts/ownership/Ownable.sol\";\nimport \"./Tokens/dogToken/DogToken.sol\";\nimport \"./Math/BondingMathematics.sol\";\n\n\ncontract BasicDogOrganisation is Ownable {\n\n    uint16 constant public version = 1;\n\n    using SafeMath for uint256;\n    \n    BondingMathematics public bondingMath;\n\n    IERC20 public dogUSD;\n    DogToken public dogToken;\n\n    address public dogBank;\n    address public dogOrgAdmin;\n    \n    uint256 public premintedDOG = 0;\n    \n    uint256 constant public USD_RESERVE_REMAINDER = 5; // 20%\n    \n    uint256 public buySlope;\n    \n    enum State {\n        LOCKED,\n        LIVE,\n        CLOSED\n    }\n    \n    State public dogOrgState;\n    \n    /*\n    * Modifiers\n    */\n    modifier onlyWhenLive() {\n        require(dogOrgState == State.LIVE, \"onlyWhenLive :: The Organisation is not live\");\n        _;\n    }\n    \n    modifier onlyAdmin() {\n        require(msg.sender == dogOrgAdmin, \"onlyAdmin :: msg sender is not the admin\");\n        _;\n    }\n    \n    /*\n    * Events\n    */\n    event Invest(address investor, uint256 amount);\n    event Withdraw(address investor, uint256 amount);\n    event UnlockOrganisation(address unlocker, uint256 initialAmount, uint256 initialDogSupply);\n    event DividendPayed(address payer, uint256 amount);\n    event CloseOrganisation(uint256 taxPenalty);\n    \n    /*\n    * @dev Contract Constructor\n    *\n    * @param _bondingMath Address of contract calculating bonding mathematics based on sqrt\n    * @param _dogUSD Address of USD Token\n    * @param _dogBank Address of dog Bank\n    * @param _name of the dog token\n    * @param _symbol of the dog token\n    * @param _decimals of the dog token\n    */\n    constructor(address _bondingMath, uint256 _buySlope, address _dogUSD, address _dogBank, string memory _name, string memory _symbol, uint8 _decimals) public {\n        \n        require(_dogUSD != address(0), \"constructor:: dog USD address is required\");\n        require(_dogBank != address(0), \"constructor:: dog Bank address is required\");\n        require(_bondingMath != address(0), \"constructor:: Bonding Math address is required\");\n        require(_buySlope > 0, \"The buy slope must be greater than zero\");\n\n        buySlope = _buySlope;\n        dogToken = new DogToken(_name, _symbol, _decimals);\n        dogUSD = IERC20(_dogUSD);\n\n        dogBank = _dogBank;\n        dogOrgAdmin = msg.sender;\n        bondingMath = BondingMathematics(_bondingMath);\n    }\n    \n    /*\n    * @dev function setDogOrgAdminAddress - Possibility to change contract administrator address\n    */\n    function setDogOrgAdminAddress(address _newdogOrgAdmin) public onlyAdmin {\n        require(_newdogOrgAdmin != address(0), \"dogOrgAdminAddress :: invalid address\");\n        dogOrgAdmin = _newdogOrgAdmin;\n    }\n    \n    /**\n    * @dev function invest - Allows investors to invest in dog Tokens. The amount of received tokens is calculated based ot bonding mathematics\n    *\n    * @param usdAmount uint256 The amount of invested USD Tokens\n    */\n    function invest(uint256 usdAmount) public onlyWhenLive {\n        require(dogUSD.balanceOf(address(this)) > 0, \"invest:: Organisation is not unlocked for investments yet\");\n        require(dogUSD.allowance(msg.sender, address(this)) >= usdAmount, \"invest:: Investor tries to invest with unapproved USD amount\");\n        \n        uint256 dogTokensToMint = calcDogForUSD(usdAmount);\n\n        uint256 reserveUSDAmount = usdAmount.div(USD_RESERVE_REMAINDER);\n        dogUSD.transferFrom(msg.sender, address(this), reserveUSDAmount);\n        dogUSD.transferFrom(msg.sender, dogBank, usdAmount.sub(reserveUSDAmount));\n\n        dogToken.mint(msg.sender, dogTokensToMint);\n        \n        emit Invest(msg.sender, usdAmount);\n    }\n    \n    /*\n    * @dev function revokeInvestment Allows investors to sell their dog Tokens\n    *\n    * @param _amountDOG uint256 The amount of dog Tokens investor wants to sell\n    */\n    function sell(uint256 _amountDOG) public {\n        require(dogToken.allowance(msg.sender, address(this)) >= _amountDOG, \"revokeInvestment:: Investor wants to withdraw Dog without allowance\");\n    \n        uint256 usdToReturn = calcUSDToReturn(_amountDOG);\n    \n        dogUSD.transfer(msg.sender, usdToReturn);\n        dogToken.burnFrom(msg.sender, _amountDOG);\n    \n        emit Withdraw(msg.sender, usdToReturn);\n    }\n    \n    function calcUSDForDog(uint256 _amountDOG) public view returns(uint256){\n        if (dogOrgState == State.LIVE) {\n            return bondingMath.calcTokenSell(dogToken.totalSupply(), dogUSD.balanceOf(address(this)), _amountDOG);\n        } else if(dogOrgState == State.CLOSED) {\n            return dogUSD.balanceOf(address(this)).mul(_amountDOG).div(dogToken.totalSupply());\n        }\n    }\n    \n    /*\n    * @dev function calcDogForUSD Uses bonding mathematics to calculate dog Tokens purchase\n    *\n    * @param usdAmount uint256 USD used to buy dog Tokens\n    */\n    function calcDogForUSD(uint256 usdAmount) public view returns(uint256) {\n        uint256 tokensAfterPurchase = bondingMath.calcPurchase(dogToken.totalSupply(), premintedDOG, usdAmount, buySlope);\n        return tokensAfterPurchase;\n    }\n    \n    /*\n    * @dev function calcUSDToReturn Uses bonding mathematics to calculate dog Tokens sell\n    *\n    * @param dogTokenAmount uint256 dog tokens to sell\n    */\n    function calcUSDToReturn(uint256 dogTokenAmount) public view returns(uint256) {\n        return bondingMath.calcTokenSell(dogToken.totalSupply(), dogUSD.balanceOf(address(this)), dogTokenAmount);\n    }\n    \n    /*\n    * @dev function payDividends Allows to send dividends back to the dog bank and CO reserve increasing the dog Token price\n    *\n    * @param dividendAmount uint256 USD Token amount payed back\n    * @param dividendRatio uint8 The rate that tokens should be split between dog Bank and CO reserve\n    */\n    function payDividends(uint256 dividendAmount, uint8 dividendRatio)  public onlyWhenLive {\n        require(dividendRatio <= 100, \"dividendRatio is higher than maximum allowed\");\n        require(dogUSD.balanceOf(address(this)) > 0, \"payDividends:: Organisation is not unlocked for dividends payment yet\");\n        require(dogUSD.allowance(msg.sender, address(this)) >= dividendAmount, \"payDividends:: payer tries to pay with unapproved amount\");\n        \n        uint256 reserveAmount = (dividendAmount.mul(dividendRatio)).div(100);\n        \n        dogUSD.transferFrom(msg.sender, address(this), reserveAmount);\n        dogUSD.transferFrom(msg.sender, dogBank, dividendAmount.sub(reserveAmount));\n        \n        emit DividendPayed(msg.sender, dividendAmount);\n    }\n    \n    /*\n    * @dev function unlockOrganisation initiate Continuous organisation\n    *\n    * @param organiserUSDContribution USD amount\n    * @param organiserDOGReward initial dog Tokens supply\n    */\n    function unlockOrganisation(uint256 organiserUSDContribution, uint256 organiserDOGReward) public onlyOwner {\n        require(dogOrgState == State.LOCKED);\n        require(dogUSD.balanceOf(address(this)) == 0, \"unlockOrganisation:: Organization is already unlocked\");\n        require(dogUSD.allowance(msg.sender, address(this)) >= organiserUSDContribution, \"unlockOrganisation:: Unlocker tries to unlock with unapproved amount\");\n\n        dogUSD.transferFrom(msg.sender, address(this), organiserUSDContribution.div(USD_RESERVE_REMAINDER));\n        dogUSD.transferFrom(msg.sender, dogBank, organiserUSDContribution.sub(organiserUSDContribution.div(USD_RESERVE_REMAINDER)));\n\n        premintedDOG = organiserDOGReward;\n        \n        dogToken.mint(msg.sender, organiserDOGReward);\n    \n        dogOrgState = State.LIVE;\n        \n        emit UnlockOrganisation(msg.sender, organiserUSDContribution, organiserDOGReward);\n    }\n    \n    /*\n    * @dev function closeOrganisation Cancels the CO and allows investors to restore their investments\n    */\n    function closeOrganisation() public onlyOwner onlyWhenLive {\n        uint256 taxPenalty = calcCloseTaxPenalty();\n        \n        require(dogUSD.allowance(msg.sender, address(this)) >= taxPenalty, \"closeOrganisation :: Owner tries to close organisation with unapproved USD amount\");\n\n        dogUSD.transferFrom(msg.sender, address(this), taxPenalty);\n\n        dogOrgState = State.CLOSED;\n\n        emit CloseOrganisation(taxPenalty);\n    }\n    \n    /*\n    * @dev function calcCloseTaxPenalty Returns closing tax in USD\n    */\n    function calcCloseTaxPenalty() public view returns(uint256) {\n        return bondingMath.calcExitFee(dogToken.totalSupply(), premintedDOG, dogUSD.balanceOf(address(this)));\n    }\n    \n}\n",
  "sourcePath": "/Users/georgispasov/Development/LimeLabs/DOG/dog-monorepo/packages/dog-contracts/contracts/BasicDogOrganisation.sol",
  "compiler": {
    "name": "solc",
    "version": "0.5.12+commit.7709ece9.Emscripten.clang",
    "optimizer": true,
    "runs": 999
  },
  "schemaVersion": "2.2.4",
  "updatedAt": "2019-10-08T14:05:21.897Z"
}