{
  "contractName": "BasicDogRegistry",
  "abi": [
    {
      "inputs": [
        {
          "internalType": "address",
          "name": "_bondingMathAddress",
          "type": "address"
        }
      ],
      "payable": false,
      "stateMutability": "nonpayable",
      "type": "constructor"
    },
    {
      "anonymous": false,
      "inputs": [
        {
          "indexed": false,
          "internalType": "address",
          "name": "organisationAddress",
          "type": "address"
        },
        {
          "indexed": false,
          "internalType": "string",
          "name": "name",
          "type": "string"
        }
      ],
      "name": "OrganisationCreated",
      "type": "event"
    },
    {
      "constant": true,
      "inputs": [],
      "name": "bondingMathAddress",
      "outputs": [
        {
          "internalType": "address",
          "name": "",
          "type": "address"
        }
      ],
      "payable": false,
      "stateMutability": "view",
      "type": "function"
    },
    {
      "constant": true,
      "inputs": [
        {
          "internalType": "address",
          "name": "",
          "type": "address"
        }
      ],
      "name": "nameOf",
      "outputs": [
        {
          "internalType": "string",
          "name": "",
          "type": "string"
        }
      ],
      "payable": false,
      "stateMutability": "view",
      "type": "function"
    },
    {
      "constant": true,
      "inputs": [
        {
          "internalType": "uint256",
          "name": "",
          "type": "uint256"
        }
      ],
      "name": "organisations",
      "outputs": [
        {
          "internalType": "address",
          "name": "",
          "type": "address"
        }
      ],
      "payable": false,
      "stateMutability": "view",
      "type": "function"
    },
    {
      "constant": false,
      "inputs": [
        {
          "internalType": "uint256",
          "name": "_reserveRatioPercent",
          "type": "uint256"
        },
        {
          "internalType": "uint256",
          "name": "_buySlope",
          "type": "uint256"
        },
        {
          "internalType": "address",
          "name": "_dogUSD",
          "type": "address"
        },
        {
          "internalType": "address",
          "name": "_dogBank",
          "type": "address"
        },
        {
          "internalType": "string",
          "name": "_name",
          "type": "string"
        },
        {
          "internalType": "string",
          "name": "_symbol",
          "type": "string"
        },
        {
          "internalType": "uint8",
          "name": "_decimals",
          "type": "uint8"
        }
      ],
      "name": "createNewOrganisation",
      "outputs": [],
      "payable": false,
      "stateMutability": "nonpayable",
      "type": "function"
    },
    {
      "constant": true,
      "inputs": [],
      "name": "organisationsCount",
      "outputs": [
        {
          "internalType": "uint256",
          "name": "",
          "type": "uint256"
        }
      ],
      "payable": false,
      "stateMutability": "view",
      "type": "function"
    }
  ],
  "bytecode": "0x608060405234801561001057600080fd5b506040516145183803806145188339818101604052602081101561003357600080fd5b5051600280546001600160a01b0319166001600160a01b039092169190911790556144b5806100636000396000f3fe60806040523480156200001157600080fd5b5060043610620000705760003560e01c8063855d3f151162000057578063855d3f1514620000bb578063f5c5738214620000d7578063f765dc3514620001785762000070565b8063246f8c44146200007557806371e24de014620000b1575b600080fd5b62000095600480360360208110156200008d57600080fd5b5035620002da565b604080516001600160a01b039092168252519081900360200190f35b6200009562000302565b620000c562000311565b60408051918252519081900360200190f35b6200010060048036036020811015620000ef57600080fd5b50356001600160a01b031662000318565b6040805160208082528351818301528351919283929083019185019080838360005b838110156200013c57818101518382015260200162000122565b50505050905090810190601f1680156200016a5780820380516001836020036101000a031916815260200191505b509250505060405180910390f35b620002d8600480360360e08110156200019057600080fd5b8135916020810135916001600160a01b03604083013581169260608101359091169181019060a081016080820135640100000000811115620001d157600080fd5b820183602082011115620001e457600080fd5b803590602001918460018302840111640100000000831117156200020757600080fd5b91908080601f01602080910402602001604051908101604052809392919081815260200183838082843760009201919091525092959493602081019350359150506401000000008111156200025b57600080fd5b8201836020820111156200026e57600080fd5b803590602001918460018302840111640100000000831117156200029157600080fd5b91908080601f0160208091040260200160405190810160405280939291908181526020018383808284376000920191909152509295505050903560ff169150620003b69050565b005b60008181548110620002e857fe5b6000918252602090912001546001600160a01b0316905081565b6002546001600160a01b031681565b6000545b90565b60016020818152600092835260409283902080548451600294821615610100026000190190911693909304601f8101839004830284018301909452838352919290830182828015620003ae5780601f106200038257610100808354040283529160200191620003ae565b820191906000526020600020905b8154815290600101906020018083116200039057829003601f168201915b505050505081565b600033600260009054906101000a90046001600160a01b031689898989898989604051620003e4906200066c565b6001600160a01b03808b168252898116602080840191909152604083018a905260608301899052878216608084015290861660a083015260ff831661010083015261012060c083018181528651918401919091528551909160e084019161014085019188019080838360005b838110156200046a57818101518382015260200162000450565b50505050905090810190601f168015620004985780820380516001836020036101000a031916815260200191505b50838103825285518152855160209182019187019080838360005b83811015620004cd578181015183820152602001620004b3565b50505050905090810190601f168015620004fb5780820380516001836020036101000a031916815260200191505b509b505050505050505050505050604051809103906000f08015801562000526573d6000803e3d6000fd5b5060008054600180820183557f290decd9548b62a8d60345a988386fc84ba6bc95484008f6362f93160ef3e56390910180547fffffffffffffffffffffffff0000000000000000000000000000000000000000166001600160a01b0385169081179091558252602090815260409091208651929350620005ab9290918701906200067a565b507f0495a4117873ae0ecb3f1338cf75ee27d1c7d1929964d00b3ecb064379203fb1818560405180836001600160a01b03166001600160a01b0316815260200180602001828103825283818151815260200191508051906020019080838360005b83811015620006265781810151838201526020016200060c565b50505050905090810190601f168015620006545780820380516001836020036101000a031916815260200191505b50935050505060405180910390a15050505050505050565b613d64806200071d83390190565b828054600181600116156101000203166002900490600052602060002090601f016020900481019282601f10620006bd57805160ff1916838001178555620006ed565b82800160010185558215620006ed579182015b82811115620006ed578251825591602001919060010190620006d0565b50620006fb929150620006ff565b5090565b6200031591905b80821115620006fb57600081556001016200070656fe6080604052600060065560146007553480156200001b57600080fd5b5060405162003d6438038062003d6483398181016040526101208110156200004257600080fd5b815160208301516040808501516060860151608087015160a088015160c089018051955197999698949793969295919483019291846401000000008211156200008a57600080fd5b908301906020820185811115620000a057600080fd5b8251640100000000811182820188101715620000bb57600080fd5b82525081516020918201929091019080838360005b83811015620000ea578181015183820152602001620000d0565b50505050905090810190601f168015620001185780820380516001836020036101000a031916815260200191505b50604052602001805160405193929190846401000000008211156200013c57600080fd5b9083019060208201858111156200015257600080fd5b82516401000000008111828201881017156200016d57600080fd5b82525081516020918201929091019080838360005b838110156200019c57818101518382015260200162000182565b50505050905090810190601f168015620001ca5780820380516001836020036101000a031916815260200191505b50604081905260209190910151600080546001600160a01b03191633178082559194506001600160a01b039190911692509060008051602062003ceb833981519152908290a36001600160a01b03851662000271576040517f08c379a000000000000000000000000000000000000000000000000000000000815260040180806020018281038252602981526020018062003c6d6029913960400191505060405180910390fd5b6001600160a01b038416620002d2576040517f08c379a000000000000000000000000000000000000000000000000000000000815260040180806020018281038252602a81526020018062003d3a602a913960400191505060405180910390fd5b6001600160a01b03881662000333576040517f08c379a000000000000000000000000000000000000000000000000000000000815260040180806020018281038252602e81526020018062003c96602e913960400191505060405180910390fd5b600086116200038e576040517f08c379a000000000000000000000000000000000000000000000000000000000815260040180806020018281038252602781526020018062003cc46027913960400191505060405180910390fd5b6000871180156200039f5750606487105b620003f6576040517f08c379a000000000000000000000000000000000000000000000000000000000815260040180806020018281038252602f81526020018062003d0b602f913960400191505060405180910390fd5b856008819055508282826040516200040e90620006ce565b60ff82166040820152606080825284519082015283518190602080830191608084019188019080838360005b83811015620004545781810151838201526020016200043a565b50505050905090810190601f168015620004825780820380516001836020036101000a031916815260200191505b50838103825285518152855160209182019187019080838360005b83811015620004b75781810151838201526020016200049d565b50505050905090810190601f168015620004e55780820380516001836020036101000a031916815260200191505b5095505050505050604051809103906000f0801580156200050a573d6000803e3d6000fd5b50600380546001600160a01b03199081166001600160a01b03938416179091556002805482168884161790556007899055600480548216878416179055600580543390831617905560018054909116918a169190911790556200056d896200057c565b505050505050505050620006dc565b6200058f6001600160e01b036200061216565b620005fb57604080517f08c379a000000000000000000000000000000000000000000000000000000000815260206004820181905260248201527f4f776e61626c653a2063616c6c6572206973206e6f7420746865206f776e6572604482015290519081900360640190fd5b6200060f816001600160e01b036200062316565b50565b6000546001600160a01b0316331490565b6001600160a01b03811662000684576040517f08c379a000000000000000000000000000000000000000000000000000000000815260040180806020018281038252602681526020018062003c476026913960400191505060405180910390fd5b600080546040516001600160a01b038085169392169160008051602062003ceb83398151915291a3600080546001600160a01b0319166001600160a01b0392909216919091179055565b61139a80620028ad83390190565b6121c180620006ec6000396000f3fe608060405234801561001057600080fd5b50600436106101985760003560e01c8063783c0bb2116100e3578063c50215011161008c578063f2fde38b11610066578063f2fde38b14610384578063f9c6c754146103aa578063ff646493146103b257610198565b8063c502150114610357578063e4849b321461035f578063e5b4eed91461037c57610198565b806396043284116100bd57806396043284146102e8578063a80d8f4e14610314578063a952c4d91461033a57610198565b8063783c0bb2146102bc5780638da5cb5b146102c45780638f32d59b146102cc57610198565b806357d6db00116101455780636e1779e01161011f5780636e1779e01461028f578063715018a61461029757806377e0205c1461029f57610198565b806357d6db00146102595780635901da5a1461026157806369fc416c1461026957610198565b80632f1d0a75116101765780632f1d0a751461020e57806343b502c81461023257806354fd4d501461023a57610198565b806306ba8d3b1461019d578063116b7a94146101cc5780632afcf480146101f1575b600080fd5b6101ba600480360360208110156101b357600080fd5b50356103ba565b60408051918252519081900360200190f35b6101ef600480360360408110156101e257600080fd5b5080359060200135610531565b005b6101ef6004803603602081101561020757600080fd5b503561095b565b610216610d47565b604080516001600160a01b039092168252519081900360200190f35b610216610d56565b610242610d65565b6040805161ffff9092168252519081900360200190f35b6101ba610d6a565b610216610d70565b6101ef6004803603604081101561027f57600080fd5b508035906020013560ff16610d7f565b61021661111f565b6101ef61112e565b6101ba600480360360208110156102b557600080fd5b50356111de565b6101ba611485565b61021661148b565b6102d461149a565b604080519115158252519081900360200190f35b6102f06114ab565b6040518082600281111561030057fe5b60ff16815260200191505060405180910390f35b6101ef6004803603602081101561032a57600080fd5b50356001600160a01b03166114b4565b6101ba6004803603602081101561035057600080fd5b5035611571565b6101ef61167e565b6101ef6004803603602081101561037557600080fd5b50356118b9565b6101ba611adc565b6101ef6004803603602081101561039a57600080fd5b50356001600160a01b0316611ae2565b610216611b47565b6101ba611b56565b600154600354604080516318160ddd60e01b815290516000936001600160a01b039081169363122e25f4939116916318160ddd91600480820192602092909190829003018186803b15801561040e57600080fd5b505afa158015610422573d6000803e3d6000fd5b505050506040513d602081101561043857600080fd5b5051600254604080516370a0823160e01b815230600482015290516001600160a01b03909216916370a0823191602480820192602092909190829003018186803b15801561048557600080fd5b505afa158015610499573d6000803e3d6000fd5b505050506040513d60208110156104af57600080fd5b5051604080516001600160e01b031960e086901b1681526004810193909352602483019190915260448201869052516064808301926020929190829003018186803b1580156104fd57600080fd5b505afa158015610511573d6000803e3d6000fd5b505050506040513d602081101561052757600080fd5b505190505b919050565b61053961149a565b61058a576040805162461bcd60e51b815260206004820181905260248201527f4f776e61626c653a2063616c6c6572206973206e6f7420746865206f776e6572604482015290519081900360640190fd5b600060095460ff16600281111561059d57fe5b146105a757600080fd5b600254604080516370a0823160e01b815230600482015290516001600160a01b03909216916370a0823191602480820192602092909190829003018186803b1580156105f257600080fd5b505afa158015610606573d6000803e3d6000fd5b505050506040513d602081101561061c57600080fd5b50511561065a5760405162461bcd60e51b81526004018080602001828103825260358152602001806121136035913960400191505060405180910390fd5b60025460408051636eb1769f60e11b8152336004820152306024820152905184926001600160a01b03169163dd62ed3e916044808301926020929190829003018186803b1580156106aa57600080fd5b505afa1580156106be573d6000803e3d6000fd5b505050506040513d60208110156106d457600080fd5b505110156107135760405162461bcd60e51b81526004018080602001828103825260448152602001806120506044913960600191505060405180910390fd5b600061073b606461072f60075486611ccb90919063ffffffff16565b9063ffffffff611d2d16565b600254604080516323b872dd60e01b81523360048201523060248201526044810184905290519293506001600160a01b03909116916323b872dd916064808201926020929091908290030181600087803b15801561079857600080fd5b505af11580156107ac573d6000803e3d6000fd5b505050506040513d60208110156107c257600080fd5b50506002546004546001600160a01b03918216916323b872dd913391166107ef878663ffffffff611d9716565b6040518463ffffffff1660e01b815260040180846001600160a01b03166001600160a01b03168152602001836001600160a01b03166001600160a01b031681526020018281526020019350505050602060405180830381600087803b15801561085757600080fd5b505af115801561086b573d6000803e3d6000fd5b505050506040513d602081101561088157600080fd5b50506006829055600354604080516340c10f1960e01b81523360048201526024810185905290516001600160a01b03909216916340c10f19916044808201926020929091908290030181600087803b1580156108dc57600080fd5b505af11580156108f0573d6000803e3d6000fd5b505050506040513d602081101561090657600080fd5b50506009805460ff19166001179055604080513381526020810185905280820184905290517fedec445470654117e459a8de953d77c06838fda4e9a661275ad4d4cee6dc4684916060908290030190a1505050565b600160095460ff16600281111561096e57fe5b146109aa5760405162461bcd60e51b815260040180806020018281038252602c815260200180611ea2602c913960400191505060405180910390fd5b600254604080516370a0823160e01b815230600482015290516000926001600160a01b0316916370a08231916024808301926020929190829003018186803b1580156109f557600080fd5b505afa158015610a09573d6000803e3d6000fd5b505050506040513d6020811015610a1f57600080fd5b505111610a5d5760405162461bcd60e51b8152600401808060200182810382526039815260200180611f196039913960400191505060405180910390fd5b60025460408051636eb1769f60e11b8152336004820152306024820152905183926001600160a01b03169163dd62ed3e916044808301926020929190829003018186803b158015610aad57600080fd5b505afa158015610ac1573d6000803e3d6000fd5b505050506040513d6020811015610ad757600080fd5b50511015610b165760405162461bcd60e51b815260040180806020018281038252603c8152602001806120d7603c913960400191505060405180910390fd5b6000610b2182611571565b90506000610b3f606461072f60075486611ccb90919063ffffffff16565b600254604080516323b872dd60e01b81523360048201523060248201526044810184905290519293506001600160a01b03909116916323b872dd916064808201926020929091908290030181600087803b158015610b9c57600080fd5b505af1158015610bb0573d6000803e3d6000fd5b505050506040513d6020811015610bc657600080fd5b50506002546004546001600160a01b03918216916323b872dd91339116610bf3878663ffffffff611d9716565b6040518463ffffffff1660e01b815260040180846001600160a01b03166001600160a01b03168152602001836001600160a01b03166001600160a01b031681526020018281526020019350505050602060405180830381600087803b158015610c5b57600080fd5b505af1158015610c6f573d6000803e3d6000fd5b505050506040513d6020811015610c8557600080fd5b5050600354604080516340c10f1960e01b81523360048201526024810185905290516001600160a01b03909216916340c10f19916044808201926020929091908290030181600087803b158015610cdb57600080fd5b505af1158015610cef573d6000803e3d6000fd5b505050506040513d6020811015610d0557600080fd5b5050604080513381526020810185905281517fd90d253a9de34d2fdd5a75ae49ea17fcb43af32fc8ea08cc6d2341991dd3872e929181900390910190a1505050565b6005546001600160a01b031681565b6003546001600160a01b031681565b600181565b60065481565b6002546001600160a01b031681565b600160095460ff166002811115610d9257fe5b14610dce5760405162461bcd60e51b815260040180806020018281038252602c815260200180611ea2602c913960400191505060405180910390fd5b60648160ff161115610e115760405162461bcd60e51b815260040180806020018281038252602c815260200180611fdb602c913960400191505060405180910390fd5b600254604080516370a0823160e01b815230600482015290516000926001600160a01b0316916370a08231916024808301926020929190829003018186803b158015610e5c57600080fd5b505afa158015610e70573d6000803e3d6000fd5b505050506040513d6020811015610e8657600080fd5b505111610ec45760405162461bcd60e51b81526004018080602001828103825260458152602001806121486045913960600191505060405180910390fd5b60025460408051636eb1769f60e11b8152336004820152306024820152905184926001600160a01b03169163dd62ed3e916044808301926020929190829003018186803b158015610f1457600080fd5b505afa158015610f28573d6000803e3d6000fd5b505050506040513d6020811015610f3e57600080fd5b50511015610f7d5760405162461bcd60e51b8152600401808060200182810382526038815260200180611fa36038913960400191505060405180910390fd5b6000610f97606461072f8560ff861663ffffffff611ccb16565b600254604080516323b872dd60e01b81523360048201523060248201526044810184905290519293506001600160a01b03909116916323b872dd916064808201926020929091908290030181600087803b158015610ff457600080fd5b505af1158015611008573d6000803e3d6000fd5b505050506040513d602081101561101e57600080fd5b50506002546004546001600160a01b03918216916323b872dd9133911661104b878663ffffffff611d9716565b6040518463ffffffff1660e01b815260040180846001600160a01b03166001600160a01b03168152602001836001600160a01b03166001600160a01b031681526020018281526020019350505050602060405180830381600087803b1580156110b357600080fd5b505af11580156110c7573d6000803e3d6000fd5b505050506040513d60208110156110dd57600080fd5b5050604080513381526020810185905281517f2a90f808c9dd57afe043de25b0834f61e5484e5fbc5a3cf6b454bf09e70ca9bb929181900390910190a1505050565b6004546001600160a01b031681565b61113661149a565b611187576040805162461bcd60e51b815260206004820181905260248201527f4f776e61626c653a2063616c6c6572206973206e6f7420746865206f776e6572604482015290519081900360640190fd5b600080546040516001600160a01b03909116907f8be0079c531659141344cd1fd0a4f28419497f9722a3daafe3b4186f6b6457e0908390a36000805473ffffffffffffffffffffffffffffffffffffffff19169055565b6000600160095460ff1660028111156111f357fe5b141561136a57600154600354604080516318160ddd60e01b815290516001600160a01b039384169363122e25f49316916318160ddd916004808301926020929190829003018186803b15801561124857600080fd5b505afa15801561125c573d6000803e3d6000fd5b505050506040513d602081101561127257600080fd5b5051600254604080516370a0823160e01b815230600482015290516001600160a01b03909216916370a0823191602480820192602092909190829003018186803b1580156112bf57600080fd5b505afa1580156112d3573d6000803e3d6000fd5b505050506040513d60208110156112e957600080fd5b5051604080516001600160e01b031960e086901b1681526004810193909352602483019190915260448201869052516064808301926020929190829003018186803b15801561133757600080fd5b505afa15801561134b573d6000803e3d6000fd5b505050506040513d602081101561136157600080fd5b5051905061052c565b600260095460ff16600281111561137d57fe5b141561052c57600354604080516318160ddd60e01b8152905161147e926001600160a01b0316916318160ddd916004808301926020929190829003018186803b1580156113c957600080fd5b505afa1580156113dd573d6000803e3d6000fd5b505050506040513d60208110156113f357600080fd5b5051600254604080516370a0823160e01b8152306004820152905161072f9287926001600160a01b03909116916370a0823191602480820192602092909190829003018186803b15801561144657600080fd5b505afa15801561145a573d6000803e3d6000fd5b505050506040513d602081101561147057600080fd5b50519063ffffffff611ccb16565b905061052c565b60085481565b6000546001600160a01b031690565b6000546001600160a01b0316331490565b60095460ff1681565b6005546001600160a01b031633146114fd5760405162461bcd60e51b81526004018080602001828103825260288152602001806120076028913960400191505060405180910390fd5b6001600160a01b0381166115425760405162461bcd60e51b8152600401808060200182810382526025815260200180611ece6025913960400191505060405180910390fd5b6005805473ffffffffffffffffffffffffffffffffffffffff19166001600160a01b0392909216919091179055565b600154600354604080516318160ddd60e01b8152905160009384936001600160a01b0391821693635cd6bd699391909216916318160ddd916004808301926020929190829003018186803b1580156115c857600080fd5b505afa1580156115dc573d6000803e3d6000fd5b505050506040513d60208110156115f257600080fd5b5051600654600854604080516001600160e01b031960e087901b16815260048101949094526024840192909252604483018890526064830152516084808301926020929190829003018186803b15801561164b57600080fd5b505afa15801561165f573d6000803e3d6000fd5b505050506040513d602081101561167557600080fd5b50519392505050565b61168661149a565b6116d7576040805162461bcd60e51b815260206004820181905260248201527f4f776e61626c653a2063616c6c6572206973206e6f7420746865206f776e6572604482015290519081900360640190fd5b600160095460ff1660028111156116ea57fe5b146117265760405162461bcd60e51b815260040180806020018281038252602c815260200180611ea2602c913960400191505060405180910390fd5b6000611730611b56565b60025460408051636eb1769f60e11b8152336004820152306024820152905192935083926001600160a01b039092169163dd62ed3e91604480820192602092909190829003018186803b15801561178657600080fd5b505afa15801561179a573d6000803e3d6000fd5b505050506040513d60208110156117b057600080fd5b505110156117ef5760405162461bcd60e51b8152600401808060200182810382526051815260200180611f526051913960600191505060405180910390fd5b600254604080516323b872dd60e01b81523360048201523060248201526044810184905290516001600160a01b03909216916323b872dd916064808201926020929091908290030181600087803b15801561184957600080fd5b505af115801561185d573d6000803e3d6000fd5b505050506040513d602081101561187357600080fd5b50506009805460ff191660021790556040805182815290517f43653e2d390c42290de0bdbe9dc5b568299e1bbf9cf406efbc9e3647f37d7e12916020908290030190a150565b60035460408051636eb1769f60e11b8152336004820152306024820152905183926001600160a01b03169163dd62ed3e916044808301926020929190829003018186803b15801561190957600080fd5b505afa15801561191d573d6000803e3d6000fd5b505050506040513d602081101561193357600080fd5b505110156119725760405162461bcd60e51b81526004018080602001828103825260438152602001806120946043913960600191505060405180910390fd5b600061197d826103ba565b600254604080517fa9059cbb0000000000000000000000000000000000000000000000000000000081523360048201526024810184905290519293506001600160a01b039091169163a9059cbb916044808201926020929091908290030181600087803b1580156119ed57600080fd5b505af1158015611a01573d6000803e3d6000fd5b505050506040513d6020811015611a1757600080fd5b5050600354604080517f79cc67900000000000000000000000000000000000000000000000000000000081523360048201526024810185905290516001600160a01b03909216916379cc67909160448082019260009290919082900301818387803b158015611a8557600080fd5b505af1158015611a99573d6000803e3d6000fd5b5050604080513381526020810185905281517f884edad9ce6fa2440d8a54cc123490eb96d2768479d49ff9c7366125a94243649450908190039091019150a15050565b60075481565b611aea61149a565b611b3b576040805162461bcd60e51b815260206004820181905260248201527f4f776e61626c653a2063616c6c6572206973206e6f7420746865206f776e6572604482015290519081900360640190fd5b611b4481611df4565b50565b6001546001600160a01b031681565b600154600354604080516318160ddd60e01b815290516000936001600160a01b039081169363841091a2939116916318160ddd91600480820192602092909190829003018186803b158015611baa57600080fd5b505afa158015611bbe573d6000803e3d6000fd5b505050506040513d6020811015611bd457600080fd5b5051600654600254604080516370a0823160e01b815230600482015290516001600160a01b03909216916370a0823191602480820192602092909190829003018186803b158015611c2457600080fd5b505afa158015611c38573d6000803e3d6000fd5b505050506040513d6020811015611c4e57600080fd5b5051604080516001600160e01b031960e087901b168152600481019490945260248401929092526044830152516064808301926020929190829003018186803b158015611c9a57600080fd5b505afa158015611cae573d6000803e3d6000fd5b505050506040513d6020811015611cc457600080fd5b5051905090565b600082611cda57506000611d27565b82820282848281611ce757fe5b0414611d245760405162461bcd60e51b815260040180806020018281038252602181526020018061202f6021913960400191505060405180910390fd5b90505b92915050565b6000808211611d83576040805162461bcd60e51b815260206004820152601a60248201527f536166654d6174683a206469766973696f6e206279207a65726f000000000000604482015290519081900360640190fd5b6000828481611d8e57fe5b04949350505050565b600082821115611dee576040805162461bcd60e51b815260206004820152601e60248201527f536166654d6174683a207375627472616374696f6e206f766572666c6f770000604482015290519081900360640190fd5b50900390565b6001600160a01b038116611e395760405162461bcd60e51b8152600401808060200182810382526026815260200180611ef36026913960400191505060405180910390fd5b600080546040516001600160a01b03808516939216917f8be0079c531659141344cd1fd0a4f28419497f9722a3daafe3b4186f6b6457e091a36000805473ffffffffffffffffffffffffffffffffffffffff19166001600160a01b039290921691909117905556fe6f6e6c795768656e4c697665203a3a20546865204f7267616e69736174696f6e206973206e6f74206c697665646f674f726741646d696e41646472657373203a3a20696e76616c696420616464726573734f776e61626c653a206e6577206f776e657220697320746865207a65726f2061646472657373696e766573743a3a204f7267616e69736174696f6e206973206e6f7420756e6c6f636b656420666f7220696e766573746d656e747320796574636c6f73654f7267616e69736174696f6e203a3a204f776e657220747269657320746f20636c6f7365206f7267616e69736174696f6e207769746820756e617070726f7665642055534420616d6f756e747061794469766964656e64733a3a20706179657220747269657320746f20706179207769746820756e617070726f76656420616d6f756e746469766964656e64526174696f20697320686967686572207468616e206d6178696d756d20616c6c6f7765646f6e6c7941646d696e203a3a206d73672073656e646572206973206e6f74207468652061646d696e536166654d6174683a206d756c7469706c69636174696f6e206f766572666c6f77756e6c6f636b4f7267616e69736174696f6e3a3a20556e6c6f636b657220747269657320746f20756e6c6f636b207769746820756e617070726f76656420616d6f756e747265766f6b65496e766573746d656e743a3a20496e766573746f722077616e747320746f20776974686472617720446f6720776974686f757420616c6c6f77616e6365696e766573743a3a20496e766573746f7220747269657320746f20696e76657374207769746820756e617070726f7665642055534420616d6f756e74756e6c6f636b4f7267616e69736174696f6e3a3a204f7267616e697a6174696f6e20697320616c726561647920756e6c6f636b65647061794469766964656e64733a3a204f7267616e69736174696f6e206973206e6f7420756e6c6f636b656420666f72206469766964656e6473207061796d656e7420796574a265627a7a723158207806172f9f1846fcefacf67163142092bed787a7a941daa2c2dabbcf37ad594f64736f6c634300050c003260806040523480156200001157600080fd5b506040516200139a3803806200139a833981810160405260608110156200003757600080fd5b81019080805160405193929190846401000000008211156200005857600080fd5b9083019060208201858111156200006e57600080fd5b82516401000000008111828201881017156200008957600080fd5b82525081516020918201929091019080838360005b83811015620000b85781810151838201526020016200009e565b50505050905090810190601f168015620000e65780820380516001836020036101000a031916815260200191505b50604052602001805160405193929190846401000000008211156200010a57600080fd5b9083019060208201858111156200012057600080fd5b82516401000000008111828201881017156200013b57600080fd5b82525081516020918201929091019080838360005b838110156200016a57818101518382015260200162000150565b50505050905090810190601f168015620001985780820380516001836020036101000a031916815260200191505b50604052602090810151855190935085925084918491620001c091600091908601906200037e565b508151620001d69060019060208501906200037e565b506002805460ff191660ff9290921691909117905550620001f990503362000202565b50505062000423565b6200021d8160066200025460201b62000d061790919060201c565b6040516001600160a01b038216907f6ae172837ea30b801fbfcdd4108aa1d5bf8ff775444fd70256b44e6bf3dfc3f690600090a250565b6200026982826001600160e01b03620002fb16565b15620002d657604080517f08c379a000000000000000000000000000000000000000000000000000000000815260206004820152601f60248201527f526f6c65733a206163636f756e7420616c72656164792068617320726f6c6500604482015290519081900360640190fd5b6001600160a01b0316600090815260209190915260409020805460ff19166001179055565b60006001600160a01b0382166200035e576040517f08c379a0000000000000000000000000000000000000000000000000000000008152600401808060200182810382526022815260200180620013786022913960400191505060405180910390fd5b506001600160a01b03166000908152602091909152604090205460ff1690565b828054600181600116156101000203166002900490600052602060002090601f016020900481019282601f10620003c157805160ff1916838001178555620003f1565b82800160010185558215620003f1579182015b82811115620003f1578251825591602001919060010190620003d4565b50620003ff92915062000403565b5090565b6200042091905b80821115620003ff57600081556001016200040a565b90565b610f4580620004336000396000f3fe608060405234801561001057600080fd5b506004361061011b5760003560e01c806370a08231116100b25780639865027511610081578063a9059cbb11610066578063a9059cbb14610376578063aa271e1a146103a2578063dd62ed3e146103c85761011b565b80639865027514610342578063a457c2d71461034a5761011b565b806370a08231146102c257806379cc6790146102e857806395d89b4114610314578063983b2d561461031c5761011b565b8063313ce567116100ee578063313ce5671461022d578063395093511461024b57806340c10f191461027757806342966c68146102a35761011b565b806306fdde0314610120578063095ea7b31461019d57806318160ddd146101dd57806323b872dd146101f7575b600080fd5b6101286103f6565b6040805160208082528351818301528351919283929083019185019080838360005b8381101561016257818101518382015260200161014a565b50505050905090810190601f16801561018f5780820380516001836020036101000a031916815260200191505b509250505060405180910390f35b6101c9600480360360408110156101b357600080fd5b506001600160a01b03813516906020013561048c565b604080519115158252519081900360200190f35b6101e56104a2565b60408051918252519081900360200190f35b6101c96004803603606081101561020d57600080fd5b506001600160a01b038135811691602081013590911690604001356104a8565b6102356104ff565b6040805160ff9092168252519081900360200190f35b6101c96004803603604081101561026157600080fd5b506001600160a01b038135169060200135610508565b6101c96004803603604081101561028d57600080fd5b506001600160a01b038135169060200135610544565b6102c0600480360360208110156102b957600080fd5b5035610594565b005b6101e5600480360360208110156102d857600080fd5b50356001600160a01b03166105a1565b6102c0600480360360408110156102fe57600080fd5b506001600160a01b0381351690602001356105bc565b6101286105ca565b6102c06004803603602081101561033257600080fd5b50356001600160a01b031661062a565b6102c0610677565b6101c96004803603604081101561036057600080fd5b506001600160a01b038135169060200135610682565b6101c96004803603604081101561038c57600080fd5b506001600160a01b0381351690602001356106be565b6101c9600480360360208110156103b857600080fd5b50356001600160a01b03166106cb565b6101e5600480360360408110156103de57600080fd5b506001600160a01b03813581169160200135166106e4565b60008054604080516020601f60026000196101006001881615020190951694909404938401819004810282018101909252828152606093909290918301828280156104825780601f1061045757610100808354040283529160200191610482565b820191906000526020600020905b81548152906001019060200180831161046557829003601f168201915b5050505050905090565b600061049933848461070f565b50600192915050565b60055490565b60006104b58484846107fb565b6001600160a01b0384166000908152600460209081526040808320338085529252909120546104f59186916104f0908663ffffffff61093f16565b61070f565b5060019392505050565b60025460ff1690565b3360008181526004602090815260408083206001600160a01b038716845290915281205490916104999185906104f0908663ffffffff61099c16565b600061054f336106cb565b61058a5760405162461bcd60e51b8152600401808060200182810382526030815260200180610e346030913960400191505060405180910390fd5b61049983836109fd565b61059e3382610aef565b50565b6001600160a01b031660009081526003602052604090205490565b6105c68282610bca565b5050565b60018054604080516020601f600260001961010087891615020190951694909404938401819004810282018101909252828152606093909290918301828280156104825780601f1061045757610100808354040283529160200191610482565b610633336106cb565b61066e5760405162461bcd60e51b8152600401808060200182810382526030815260200180610e346030913960400191505060405180910390fd5b61059e81610c0f565b61068033610c57565b565b3360008181526004602090815260408083206001600160a01b038716845290915281205490916104999185906104f0908663ffffffff61093f16565b60006104993384846107fb565b60006106de60068363ffffffff610c9f16565b92915050565b6001600160a01b03918216600090815260046020908152604080832093909416825291909152205490565b6001600160a01b0383166107545760405162461bcd60e51b8152600401808060200182810382526024815260200180610eed6024913960400191505060405180910390fd5b6001600160a01b0382166107995760405162461bcd60e51b8152600401808060200182810382526022815260200180610e126022913960400191505060405180910390fd5b6001600160a01b03808416600081815260046020908152604080832094871680845294825291829020859055815185815291517f8c5be1e5ebec7d5bd14f71427d1e84f3dd0314c0f7b2291e5b200ac8c7c3b9259281900390910190a3505050565b6001600160a01b0383166108405760405162461bcd60e51b8152600401808060200182810382526025815260200180610ec86025913960400191505060405180910390fd5b6001600160a01b0382166108855760405162461bcd60e51b8152600401808060200182810382526023815260200180610def6023913960400191505060405180910390fd5b6001600160a01b0383166000908152600360205260409020546108ae908263ffffffff61093f16565b6001600160a01b0380851660009081526003602052604080822093909355908416815220546108e3908263ffffffff61099c16565b6001600160a01b0380841660008181526003602090815260409182902094909455805185815290519193928716927fddf252ad1be2c89b69c2b068fc378daa952ba7f163c4a11628f55a4df523b3ef92918290030190a3505050565b600082821115610996576040805162461bcd60e51b815260206004820152601e60248201527f536166654d6174683a207375627472616374696f6e206f766572666c6f770000604482015290519081900360640190fd5b50900390565b6000828201838110156109f6576040805162461bcd60e51b815260206004820152601b60248201527f536166654d6174683a206164646974696f6e206f766572666c6f770000000000604482015290519081900360640190fd5b9392505050565b6001600160a01b038216610a58576040805162461bcd60e51b815260206004820152601f60248201527f45524332303a206d696e7420746f20746865207a65726f206164647265737300604482015290519081900360640190fd5b600554610a6b908263ffffffff61099c16565b6005556001600160a01b038216600090815260036020526040902054610a97908263ffffffff61099c16565b6001600160a01b03831660008181526003602090815260408083209490945583518581529351929391927fddf252ad1be2c89b69c2b068fc378daa952ba7f163c4a11628f55a4df523b3ef9281900390910190a35050565b6001600160a01b038216610b345760405162461bcd60e51b8152600401808060200182810382526021815260200180610ea76021913960400191505060405180910390fd5b600554610b47908263ffffffff61093f16565b6005556001600160a01b038216600090815260036020526040902054610b73908263ffffffff61093f16565b6001600160a01b0383166000818152600360209081526040808320949094558351858152935191937fddf252ad1be2c89b69c2b068fc378daa952ba7f163c4a11628f55a4df523b3ef929081900390910190a35050565b610bd48282610aef565b6001600160a01b0382166000908152600460209081526040808320338085529252909120546105c69184916104f0908563ffffffff61093f16565b610c2060068263ffffffff610d0616565b6040516001600160a01b038216907f6ae172837ea30b801fbfcdd4108aa1d5bf8ff775444fd70256b44e6bf3dfc3f690600090a250565b610c6860068263ffffffff610d8716565b6040516001600160a01b038216907fe94479a9f7e1952cc78f2d6baab678adc1b772d936c6583def489e524cb6669290600090a250565b60006001600160a01b038216610ce65760405162461bcd60e51b8152600401808060200182810382526022815260200180610e856022913960400191505060405180910390fd5b506001600160a01b03166000908152602091909152604090205460ff1690565b610d108282610c9f565b15610d62576040805162461bcd60e51b815260206004820152601f60248201527f526f6c65733a206163636f756e7420616c72656164792068617320726f6c6500604482015290519081900360640190fd5b6001600160a01b0316600090815260209190915260409020805460ff19166001179055565b610d918282610c9f565b610dcc5760405162461bcd60e51b8152600401808060200182810382526021815260200180610e646021913960400191505060405180910390fd5b6001600160a01b0316600090815260209190915260409020805460ff1916905556fe45524332303a207472616e7366657220746f20746865207a65726f206164647265737345524332303a20617070726f766520746f20746865207a65726f20616464726573734d696e746572526f6c653a2063616c6c657220646f6573206e6f74206861766520746865204d696e74657220726f6c65526f6c65733a206163636f756e7420646f6573206e6f74206861766520726f6c65526f6c65733a206163636f756e7420697320746865207a65726f206164647265737345524332303a206275726e2066726f6d20746865207a65726f206164647265737345524332303a207472616e736665722066726f6d20746865207a65726f206164647265737345524332303a20617070726f76652066726f6d20746865207a65726f2061646472657373a265627a7a7231582063dbcab6c4c3b4ec63e53440eeb75af4bad4f856ba18e160d447a96a7a460e3b64736f6c634300050c0032526f6c65733a206163636f756e7420697320746865207a65726f20616464726573734f776e61626c653a206e6577206f776e657220697320746865207a65726f2061646472657373636f6e7374727563746f723a3a20646f67205553442061646472657373206973207265717569726564636f6e7374727563746f723a3a20426f6e64696e67204d61746820616464726573732069732072657175697265645468652062757920736c6f7065206d7573742062652067726561746572207468616e207a65726f8be0079c531659141344cd1fd0a4f28419497f9722a3daafe3b4186f6b6457e0546865207265736572766520726174696f206e6565647320746f206265206265747765656e203120616e6420313030636f6e7374727563746f723a3a20646f672042616e6b2061646472657373206973207265717569726564a265627a7a72315820133e361cca902194efdfdc06019843217793b83998cfcdf1269486e53eb7b2ad64736f6c634300050c0032",
  "source": "pragma solidity ^0.5.4;\n\n\nimport \"./BasicDogOrganisation.sol\";\n\ncontract BasicDogRegistry {\n\n    address[] public organisations;\n    mapping(address=>string) public nameOf;\n    address public bondingMathAddress;\n\n    event OrganisationCreated(address organisationAddress, string name);\n\n    constructor(address _bondingMathAddress) public {\n        bondingMathAddress = _bondingMathAddress;\n    }\n\n    function createNewOrganisation(uint256 _reserveRatioPercent, uint256 _buySlope, address _dogUSD, address _dogBank, string memory _name, string memory _symbol, uint8 _decimals) public {\n        address newOrg = address(new BasicDogOrganisation(msg.sender, bondingMathAddress, _reserveRatioPercent, _buySlope, _dogUSD, _dogBank, _name, _symbol, _decimals));\n        organisations.push(newOrg);\n        nameOf[newOrg] = _name;\n        emit OrganisationCreated(newOrg, _name);\n    }\n\n    function organisationsCount() public view returns(uint256) {\n        return organisations.length;\n    }\n    \n}\n",
  "sourcePath": "/Users/georgispasov/Development/LimeLabs/DOG/dog-monorepo/packages/dog-contracts/contracts/BasicDogRegistry.sol",
  "compiler": {
    "name": "solc",
    "version": "0.5.12+commit.7709ece9.Emscripten.clang",
    "optimizer": true,
    "runs": 999
  },
  "schemaVersion": "2.2.4",
  "updatedAt": "2019-11-04T17:45:14.465Z"
}